:020000040800F2
:10000000900700207902000879620008454F000837
:10001000635C0008012700080B8600080000000050
:10002000000000000000000000000000E177000870
:100030008D49000800000000016300085D80000891
:10004000930200089302000893020008930200083C
:10005000930200089302000893020008930200082C
:10006000994A0008930200089302000893020008CE
:10007000930200089302000893020008930200080C
:1000800093020008930200089302000893020008FC
:1000900093020008930200089302000893020008EC
:1000A00093020008930200089302000893020008DC
:1000B00093020008930200089302000893020008CC
:1000C00093020008930200089302000893020008BC
:1000D0009302000855830008930200089302000869
:1000E000930200089302000893020008930200089C
:1000F000930200089302000893020008930200088C
:10010000930200089302000893020008930200087B
:10011000930200089302000893020008930200086B
:10012000930200089302000893020008930200085B
:1001300000F002F800F090F80AA090E8000C824469
:100140008344AAF10107DA4501D100F085F8AFF246
:10015000090EBAE80F0013F0010F18BFFB1A43F0A5
:1001600001031847749E0000949E0000103A24BFBB
:1001700078C878C1FAD8520724BF30C830C144BF0C
:1001800004680C607047000000230024002500264E
:10019000103A28BF78C1FBD8520728BF30C148BFEA
:1001A0000B6070476E2900F02982702900F06B8384
:1001B000662909F05C85652909F05985672909F0E8
:1001C00056856129AFF3008003681B0A28BF41F000
:1001D0008001692900F0D681642900F0D381752956
:1001E00000F0D0816F2900F0F882782900F0378381
:1001F000E92900F09382E42900F09082F52900F0CB
:100200008D82EF2900F0F582F82900F0368303682B
:10021000DB0928BF41F08001632900F06D87732955
:1002200000F07287E32900F07D87F32900F08287D0
:10023000002070471FB500F09BFC04000020002147
:1002400009F0B0F8401C60600020002109F0C0F8FF
:10025000E0601FBD10B510BD00F0BEFF1146FFF7F6
:10026000E9FF08F033FF01F00BFB03B4FFF7F2FFE7
:1002700003BC01F043FD00000948804709480047DE
:10028000FEE7FEE7FEE7FEE7FEE7FEE7FEE7FEE746
:10029000FEE7FEE704480549054A064B70470000A3
:1002A0006D800008310100089001002090070020B7
:1002B00090030020900300201CB50C46064B7B44A5
:1002C00069460090204600F0B2F9044600206946D5
:1002D00000F0C0F920461CBD930300002DE9F04753
:1002E00091460F4680460446002614F8015B2DB166
:1002F00000F0DAF80068405DC007F6D12B2D02D07F
:100300002D2D18D0641E4A463946204600F08AFB3F
:1003100027B13968A14201D1C7F800804FF002042B
:1003200071050BD54042002803DD00F0C5F80460DC
:10033000A007BDE8F08746F48066E4E70028F8DA15
:1003400000F0BAF804606FF00040F2E710B5431C0B
:1003500002E010F8011B71B18107FAD14FF00132B0
:1003600002C88C1A8C4314EAC211F9D0C01A0A06CA
:1003700003D0C01E10BDC01A10BD0A0401D0801EDB
:1003800010BD0902FCD0401E10BD40EA010370B54B
:100390009B072ED14FF00136042A2AD308C810C972
:1003A0009D1B9D43121F15EAC61517D0D8B2E1B2A6
:1003B000401A50EA056110D198B2A1B2401A50EA31
:1003C00005410AD123F07F4024F07F41401A50EAD2
:1003D000052102D1180EA0EB146070BDA342DBD042
:1003E00018BA21BA884201D9012070BD4FF0FF3000
:1003F00070BD0AB9002070BD10F8013B11F8014B27
:1004000063B1A3420AD1521E08D010F8013B11F883
:10041000014B1BB1A34201D1521EEDD1181B70BD7F
:100420004FF0013C50F8042B51F8043B9A4221D183
:10043000A2EB0C03934313EACC1317D150F8042B0F
:1004400051F8043B9A4215D1A2EB0C03934313EAF3
:10045000CC130BD150F8042B51F8043B9A4209D12C
:10046000A2EB0C03934313EACC13DBD04FF0000054
:10047000704700BFD01A01BAB1FA81F101F018013A
:1004800022FA01F0CB40C1F12001DBB2C0B2C01AA8
:100490002CFA01F3D11A914311EAC311E6D1704746
:1004A000704770477047000010B500F061FB001DF9
:1004B00010BD00BFF18E00000048704730010020E1
:1004C00070B5044685690068C10601D5302600E094
:1004D0002026C00707D070BDD4E9012130469047DF
:1004E000206A401C20626D1EF6D570BD70B50446B2
:1004F00085690078C00707D170BDD4E901212020AB
:100500009047206A401C20626D1EF6D570BD0968B8
:100510004A0501D540B27047C905FCD500B2704705
:1005200009684A0501D5C0B27047C905FCD580B23B
:10053000704770B50C460546012A05D0287880061C
:1005400000D5EA69002302E0012305E05B1C934229
:1005500002D2E05C0028F9D1A869E618C01AA861A7
:10056000286A184428622846FFF7AAFF04E0D5E964
:10057000012114F8010B9047B442F8D32846FFF745
:10058000B5FF70BD2DE9F0410646002410687529BD
:10059000314616A510D0FFF7BAFF002802DA404214
:1005A00013A507E031688A0701D512A502E04907C3
:1005B00004D511A5012401E0FFF7B2FF00210A22B2
:1005C00006F1240709E0B0FBF2FCB0FBF2F302FBFA
:1005D0001C00303078541846491C0028F3D12346BB
:1005E0002A463046BDE8F04100F014BB0000000090
:1005F0002D0000002B0000002000000011680268A0
:10060000006A530501D508700AE0D30501D50880BA
:1006100006E0130603D5C217C1E9000200E0086036
:100620000120704701694A1C02610878704700B5D3
:100630008FB0CDE901310021059105497944CDE91B
:1006400003101146684600F029F90FB000BD000004
:10065000E5FFFFFF0A6802F8010B0A60704700001F
:100660002DE9FF5F15468A460446DFF8AC80F84462
:100670000027D8E900103E46CDE9001010E03AF816
:1006800016106A4602A800F087FD411C07D02178A9
:10069000890603D5E269391891420DD80744761CC2
:1006A0002078800602D5E069B84205DDAE42E6DB7F
:1006B0003AF816000028E2D1A069C01BA0612046CC
:1006C000FFF7FEFED8E90010CDE90010002017E08A
:1006D0003AF818106A4602A800F05EFDB0F1FF3F3C
:1006E00081460BD000250DF1080B05E0D4E901216E
:1006F0001BF8050090476D1C4D45F7D308F101002C
:10070000B0428046E4DB206A384420622046FFF78E
:10071000EDFEBDE8FF9F00005E9700002DE9F0416F
:100720008046D21D22F007020025D2E90002F529F9
:1007300015A614D0011E72F1000106DA0023D0EBD9
:10074000030063EB020211A608E0D8F800108B0743
:1007500001D50FA602E0490701D50EA601251146D5
:10076000002408F1240704E000F006FA30323A557C
:10077000641C50EA0102F7D12B463246214640461E
:10078000BDE8F04100F046BA000000002D00000076
:100790002B0000002000000030B4002100F12404F0
:1007A00008E002F00705D208303542EA4372DB0860
:1007B0006554491C52EA0305F3D10468002310A2D2
:1007C000250707D5A40600D421B1C46901230DA2D1
:1007D000641EC46130BC00F01DBA10B50446214649
:1007E0001068FFF79DFE02462046BDE8104000233A
:1007F000D2E7D21D22F00701D1E90023CCE70000A7
:100800000000000030000000F0B40D46018809052A
:1008100002D5214C7C4402E01F4C7C440E34002164
:1008200000F1240608E002F00F071209E75D42EA32
:1008300003721B097754491C52EA0307F3D102786B
:100840000023120704D5702D06D009B102231134FC
:100850002246F0BC00F0DEB901231034F8E770B591
:1008600004460D4621461068FFF75AFE0246294607
:100870002046BDE870400023C6E7D21D22F00703E2
:10088000D3E90023C0E70368126843F02003036044
:100890000823C3610023B7E7C09500002DE9F05F8E
:1008A000894604464FF0000ADFF874B1FB44C0F8F3
:1008B00020A02046E1688847002874D0252806D06B
:1008C000D4E901219047206A401C2062F1E700260C
:1008D0005F462046E16888472028054607DB312D22
:1008E00005D2781910F8200C08B10643F1E7B007DB
:1008F00001D526F00406C4F81CA00027C4F818A0EF
:100900002A2D09D0284607F0FCFF38B304EB8708EE
:10091000303DC8F8185019E059F8041B204604EB84
:1009200087029161E1688847012F054618D1E06987
:10093000002820DA26F020061DE0D8F8180000EB89
:10094000800005EB40003038C8F818002046E16808
:100950008847054607F0D5FF0028EED1012F0AD0C1
:100960002E2D08D12046E16888477F1C0546022FBE
:1009700046F02006C4DBA069002803DA404246F0B6
:100980000106A061F00701D026F010066C2D0BD0F7
:10099000682D09D04C2D39D06A2D35D0742D35D025
:1009A0007A2D33D016E038E0E1682F46204688479C
:1009B000B842054609D16C2F26D04FF48060E1681B
:1009C000064320468847054604E06C2F1AD04FF4B2
:1009D000807006430DB3A5F14100192802D82035D7
:1009E00046F400664A462946204626604E46FFF7F2
:1009F000D9FB80B101280BD0F61D26F0070000F1CD
:100A0000080956E74020E4E78020D8E70020D6E731
:100A100006F104094DE7284652E7206ABDE8F09F39
:100A2000509500002DE9F05F824615468B46002761
:100A30000AF10104B9460078302801D09DB113E0D5
:100A400014F8010B0127782803D0582801D045B1AC
:100A50000AE00DB1102D07D1002714F8010B102565
:100A600002E0082500E00A250026B0460EE005FB5E
:100A7000080005FB06F101271FFA80F801EB10467C
:100A8000B6F5803F00D3B94614F8010B294600F0B3
:100A900055FB0028EBDABBF1000F05D00FB1641E47
:100AA00000E05446CBF80040B9F1000F06D0FFF744
:100AB00003FD02210160C81EBDE8F09F48EA064020
:100AC000FAE700000FB4002300B589B00CA900912B
:100AD0000B99CB60214B7B440693214B7B440793BE
:100AE00004236FF00042CDE901321E4A7A446B467E
:100AF00008920246002009F01CF909B05DF814FBC9
:100B000070B506464FF0FF3015460C46324686B0AB
:100B10000091CDE9010169460020049004A8FFF787
:100B2000D1FF02460498211825B108B1084600E01B
:100B300020462860049800280DD0002A02DD009885
:100B4000884208D03246081B69460094CDE901046A
:100B500004A8FFF7B7FF06B070BD00007F060000D5
:100B60009706000013010000004870473001002084
:100B7000004870475001002030B5B0F10A024FEA3A
:100B8000900E71F100034EEA817EB0EB0E0061EB36
:100B900091014FEA101E4EEA017E10EB0E0041EB70
:100BA00011114FEA102E4EEA016E10EB0E0041EBD0
:100BB00011214FEA104E4EEA014E10EB0E0041EBB0
:100BC0001141401841F100014FEAD00040EA417064
:100BD0004FEAD10110EB80054FEA810444EA90749A
:100BE00044EB01046D1944EB0404521BA3414FF084
:100BF000000348BF0A3200D530BD401C41F100015E
:100C000030BD10B50446FFF74FFC0068005D00F0F2
:100C1000010010BD2DE9F0470D4699469246044665
:100C200000F124080168880604D5E06921F010016C
:100C3000216000E00120A84201DD471B00E0002701
:100C4000A1697A1902EB0900081AA0612078C00690
:100C500002D42046FFF734FC002608E0D4E9012145
:100C60001AF806009047206A401C761C20624E4508
:100C7000F4DB2078C0060AD52046FFF721FC06E009
:100C8000D4E9012130209047206A401C2062381EA0
:100C9000A7F10107F4DC07E0D4E9012118F8050009
:100CA0009047206A401C2062281EA5F10105F3DC54
:100CB0002046FFF71BFC2078000602D50220BDE885
:100CC000F0870120FBE770472DE9FF4F0C461E46D9
:100CD0004FF0FF378BB0D2E90001DDF860800A9059
:100CE0008A46C1F30A5505B93D46002108464FF032
:100CF0000000BAF1000F00F4400005DA00EB8000BC
:100D00004FF4400101EA50004FEA9059B9F1010F48
:100D100000DDB9460A9850EA4A000ED044F6105059
:100D2000A5F2FF3545432F14B8F1000F1ED07542D0
:100D3000291E1EDDC9F100021CE0B8F1010F4FF0C1
:100D4000000001D0302103E0F24305E02154401CB3
:100D5000B042FBDB30460022002121540B99C1F840
:100D60000880C1E900200FB0BDE8F08FBD1B6D1CED
:100D7000DEE74A4600DA694206A800F00FFD06AB3E
:100D800093E8070003AB83E8070050460A9900F098
:100D9000CFFF8DE80700A0F500501F3800900398A2
:100DA000002D0ADD42F21F014A460844002303A930
:100DB0000390684601F07AFA09E0A0F500504A462F
:100DC0001F38002303A90390684601F099FA8DE8C3
:100DD00007000004000C03D04FF0FF30410800E092
:100DE0001046B8F1000F03D00022009215461EE015
:100DF000751E05D4FFF7C0FE303262556D1EF9D561
:100E0000B3460122084302D000227F1C04E0207870
:100E1000302801D100227F1E002A099784D01DE0CE
:100E2000112D07DAFFF7A8FE303262556D1C50EA2B
:100E30000102F5D1084302D00098C8B10EE00021AC
:100E4000681E05E0235C625C63542254401E491C0A
:100E50008142F7DBAB46A81B401E0990002004F836
:100E60000B000B98099AC0F80880C0E9002B7AE7BC
:100E700011264FF0000857E72DE9F04F8846044649
:100E8000D21D22F0070191B0D1E90001CDE90A019C
:100E900007F0A2FC02460B98C00F01D02D2007E0FE
:100EA0002068810701D52B2002E0202101EAC00043
:100EB000032A099001D0072A05DB03464146204654
:100EC00000F0B0F90BE12078800601D5E06900E080
:100ED0000620B8F1650F814606D0B8F1660F18D02C
:100EE000B8F1670F70D131E00020B9F1110F009017
:100EF00001DB112301E009F101030AAA01A90CA8F1
:100F0000FFF7E2FEDDE90C70002609F101058346DA
:100F100047E001204B4600904FF000470AAA01A984
:100F20000CA8FFF7D1FEDDE90DB00C995D46002657
:100F300010B909F101000D18B9EB050003D4C0F197
:100F4000FF3609F10105A5EB09002BE0B9F1010F0E
:100F500001DA4FF001090020B9F1110F0090484665
:100F600001DD112300E003460AAA01A90CA8FFF73E
:100F7000ABFEDDE90C704D46002683462078000765
:100F80000AD4AB4500DA5D4601A8012D04DD411904
:100F900011F8011C302907D04F4502DA17F1040F70
:100FA00004DA012082460FE06D1EEEE7002F02DC1E
:100FB000ED1B3E4403E0781CA84200DD7D1CB81BFD
:100FC00000F1010A4FF000472078000703D4AA453A
:100FD00001DB4FF0FF3A0021B7F1004F0DF143085C
:100FE0008DF8431024D002202B23002F01DA7F42FA
:100FF0002D230A21021EA0F1010000DC5FB197FB46
:10100000F1FC97FBF1F201FB1C7C17460CF1300C54
:1010100008F801CDEEE7A8F1010003702188090569
:1010200001D5452100E06521A0F1010800F8011C6F
:1010300009980FA9A1EB0807FF1D00B10120411974
:1010400001EBEA70A1693844081A401EA0612078BB
:10105000C00602D42046FFF733FA099828B1D4E934
:1010600001219047206A401C20622078C00622D5CA
:101070002046FFF725FA1EE0002E04DBB34502DD13
:1010800001A8805D00E03020D4E901219047206A6A
:10109000401C2062761CAAF101005FEA000A0AD116
:1010A000FFF766FDC0680168405CD4E90121904704
:1010B000206A401C2062281EA5F10105DCDC07E047
:1010C000D4E9012118F8010B9047206A401C2062E6
:1010D000381EA7F10107F3DC2046FFF707FA0320CB
:1010E00011B041E610B5436913B1AFF3008001E0E0
:1010F000FFF71FFA012010BD127800F124010A70D9
:1011000000224A700122EDE711684FF0FF32E9E753
:1011100010B5436913B1AFF3008001E0FFF7A0FA07
:10112000012010BD128800F1240182840022C284B3
:101130000122EDE711684FF0FF32E9E73A2800D2CB
:10114000303820F02002412A01D3A2F13700884232
:1011500001D34FF0FF307047426842B1016811F887
:10116000013B23B1521EC0E900121846704701210D
:10117000C160881E704742685AB1C368016843B9AC
:1011800083688B4205D0491E521CC0E90012002022
:1011900070474FF0FF30704770B516460C46054655
:1011A000FFF782F9036893F80101012806D0FF2CAC
:1011B0000FD8185D68B101202C7070BDD3F80701FD
:1011C0003246214603F2071303442846BDE8704027
:1011D00018474FF0FF3070BD7546FFF7C5FCAE46AF
:1011E00005006946534620F00700854618B020B533
:1011F000FFF750F8BDE820404FF000064FF0000721
:101200004FF000084FF0000B21F00701AC46ACE8AE
:10121000C009ACE8C009ACE8C009ACE8C0098D461B
:10122000704700002DE9F0411F460446032601687F
:10123000072A01F4006004DB08B116A505E016A535
:1012400003E008B115A500E015A521F0100020600D
:10125000A069C01EA0610FB1401EA0612046FFF72B
:101260002FF94FB1D4E9012138469047206A401C3C
:101270002062C01C206206E0206AFAE7D4E901215E
:1012800015F8010B9047761EF8D22046FFF72EF98D
:10129000BDE8F0814E414E006E616E00494E460041
:1012A000696E66002DE9FF4F06468BB00878FF286F
:1012B00006D0491C2D2805D000244FF0000908E075
:1012C00000200CE00124F8E709EB8903491C00EB3E
:1012D00043090878FF28F7D114B1C9F1000081460D
:1012E000107800252C46AA4629462D2801D02B2807
:1012F00004D1521C2D2813D0002082468B46107832
:10130000FF280FD04FF0000C0A21521CA5FB0178DA
:1013100004FB018105FB0C11C5194BEB0104EEE741
:101320000120EAE7002108464FF00000BAF1000F63
:1013300002D000EB80004008C0F38157012F01DD8F
:101340004FF0FF370E9955EA040009EB01080BD066
:101350004FF0020918F5FA7F16DA4FEACA70002F2B
:10136000706008DD012007E04FEACA70C6E900B0EE
:101370000FB0BDE8F08F00203060FFF79DF8C0F897
:1013800000901821084616E0B8F5FA7F18DD002F06
:1013900002DAF748784401E0F6487844D0E90010D2
:1013A000C6E9001040EACA707060FFF785F8C0F81F
:1013B0000090142108460FB0BDE8F04F08F054BC6F
:1013C000002108464FF00000B8F10001099002DA50
:1013D000C7F1000200E03A4601DAC8F1000106A8B0
:1013E00000F0DCF906AB93E8070003AB83E80700E5
:1013F00044F23E005BEA04010090584604D144F2F6
:101400001E012C465D460091210C0904014306D1C2
:101410000099240444EA15442D041039009104F085
:101420007F41014306D10099240244EA15642D024C
:101430000839009104F07041014306D1009924015C
:1014400044EA15742D01091F009104F04041014345
:1014500006D10099A40044EA9574AD00891E00915C
:1014600004F00041084304D100986D196441401E06
:1014700000904FF001033A466846B8F1000FCDE9FD
:10148000014503A902DD00F050FF01E000F023FF59
:10149000BAF1000F04460D4601D084F0004400214B
:1014A00008464FF00000099940F2FF77484010F0DD
:1014B0000C0F07D124F00040284303D0C4F30A5096
:1014C000B84212D1FEF7F8FFC0F80090C4F30A50FA
:1014D000B8420AD1A8487844D0E90010C6E9001003
:1014E00004F000410843706042E7C6E900543FE75A
:1014F0002DE9FF4F1F464FF0000A4FF0FF384546D9
:1015000091B0D7E90146CDF83CA0FFF731FBC068A8
:101510000168405C1090B96912986D1C8847396A5F
:10152000814688470028F6D1B9F1FF3F0AD0002E46
:1015300024F4D06411DDB9F12B0F08D0B9F12D0FCF
:101540000BD102E0404615B013E744F48064B9695A
:1015500012986D1C8847761E8146600504A901D546
:101560002D2000E02B20002E01F1010B0DF13008A1
:101570008DF810003FDDB9F1690F08D0B9F1490FBE
:1015800005D0B9F16E0F02D0B9F14E0F1CD13B4618
:1015900001A8009580E85002DDE912126FF0020008
:1015A00008F0CBFBC11CCED10EE0B96912986D1CBE
:1015B000884781461398761E44F4007405600F989E
:1015C000401C002E0F9016DDB9F1300FEDD0B9F1AF
:1015D000780F02D0B9F1580F0DD10F9801280AD118
:1015E0003B46CDE90054DDE91212001F029608F0D7
:1015F000A2FBC11CA7D1109989453ED144F08004BB
:1016000006E01399681CAAF1010A44F4007408600A
:10161000B9696D1C1298761E884730288146F0D033
:101620002BE01099894505D1200603D4761E44F09D
:10163000800418E0484607F064F908B3761E0DF1FF
:1016400023018B4544F4007408D2A9F130000BF853
:10165000010B200607D5AAF1010003E0200602D401
:101660000AF101008246A00502D51399681C0860A2
:10167000B96912986D1C88478146002ED1DC53E071
:10168000002E51DDB9F1650F02D0B9F1450F4BD1F4
:10169000A00549D5B9696D1C1298761E24F44074D2
:1016A0008847002E81460CDD2B2804D0B9F12D0F80
:1016B00007D144F48074B96912986D1C8847761E6E
:1016C0008146E00501D52D2100E02B2108F8011B02
:1016D000CDF8008021E0761E0DF13901884544F4F3
:1016E00000740CD2A9F1300010F0FF0088F800005F
:1016F00002D10099884509D908F1010806E0E00502
:1017000001D51E4801E042F20F708246B969129875
:101710006D1C8847814613980560002E04DD4846FD
:1017200007F0EFF80028D6D1F96912988847FF2012
:1017300053468BF8000088F8000000200A900B90B8
:1017400004AA0CA90AA8FFF7ADFDA00502D46FF00A
:101750000100F8E614F0240F12D0E0071CD138681D
:10176000DDE90A12031D3B600068C0E9001213E0C6
:10177000688C00005A8C00001E8B0000F1D8FFFF1F
:101780000AA9684607F04CF8E00705D13868009AC6
:10179000011D3960006802602846D4E62DE9F04753
:1017A000814616468AB0354878440DC88DE80D004C
:1017B00032487844801C03AC0DC884E80D0041F623
:1017C0009B300844372190FBF1F290FBF1F5A5F135
:1017D000800501FB12041B3C02D56442012000E09D
:1017E0000020DFF898A080460027FA44AAF1BE0A3C
:1017F0000EE0E0070AD03246684607EB47010123B6
:101800000AEB810100F07CFD8DE8070064107F1C6D
:10181000002CEED1194F7F44AE3F19E0E80715D0F8
:1018200007EB04100DF1180A90E80E008AE80E008C
:10183000C068F04201D1981908903246012306A9E8
:1018400003A800F05DFD03AB83E807006D10641C86
:10185000002DE3D14FF0010332466946B8F1000F85
:1018600003A802D000F022FD01E000F049FDC9E923
:101870000001C9F808200AB0BDE8F087E48600003E
:1018800010B50446AFF300802046BDE81040FEF7D7
:10189000ECBC10B5FEF710FE006810BD10B5044694
:1018A000FEF70AFE046010BD2DE9FF4F1F464FF002
:1018B0003C0987B04FF00042DDE9141001F1010846
:1018C000DDF858A002EA40500390002005908346BE
:1018D000054604460490B969461E08988847AAF14F
:1018E000010A0290BAF1000F3BDD02982E2815D0B4
:1018F0001021FFF723FC00282EDB4FF0010B059988
:10190000014317D0B9F1000F0BDB4A46C11700F0B5
:10191000FBF905430C43A9F1040905E001200490FB
:101920000BE008B145F0010501200590049820B9AD
:10193000361D02E0049800B1361FB969089808F115
:1019400001088847BBF1000FAAF1010A0290C9D033
:101950000999C1F80080C5E70298702808D050287E
:1019600006D0F96908988847BBF1000F14D04FE002
:10197000002002900120BBF1000F049009D0B9694A
:10198000089808F101088847AAF10109B9F1000F88
:1019900007DCF969089888476FF001000BB0BDE8D3
:1019A000F08F2B2804D02D280CD14FF0FF3004905D
:1019B000B969089808F101088847A9F10109B9F146
:1019C000000FE6DD411CE4D00A21FFF7B7FB002839
:1019D000DFDB029908F1010801EB810100EB410016
:1019E0000290B969089888470A21FFF7A7FB099A6E
:1019F000A9F10109B9F1000FC2F8008001DD00284A
:101A0000E7DAF969089888470499029800FB0166AB
:101A100055EA040004D004F04041090002D006E079
:101A2000039898E0A40044EA9574AD00B61E04F053
:101A30000041080002D16D196441761E159810F01E
:101A4000240F03D04FF00B095C4803E04FF0280946
:101A50006FF07D008246564507DAAAEB06018944FD
:101A6000B9F1410F01DD4FF0410901200021A9F139
:101A7000010200F049F9024628400B462140084384
:101A800001D0012100E00021501E029143F1FF31FD
:101A900028402140084301D0012000E000200299A5
:101AA000834651EA0B014FD0002108464FF0000059
:101AB000039900F4400039B100EB80004FF440017D
:101AC00000EBD07001EA60008015012802DD4FF0C4
:101AD000FF3000E013D0401C36D0029860B3BBF159
:101AE000000F0CD14A460120002100F00DF92840DA
:101AF0002140084301D0012000E00020E0B1012096
:101B00004A46002100F000F9034640190A466141A7
:101B10002D1A8C4111D3B9F1400F09DD159810F041
:101B2000240F02D0AAF1340603E0AAF1170600E060
:101B3000761C00254FF0004406E05B1E42F1FF32A8
:101B400020EA030521EA0204CAF10100B04206DAE4
:101B50001B49039808430190002000900EE0039A6F
:101B6000C4F3D321E80A0A43164940EA44500A4321
:101B70003146CDE90002684606F0B8FE159810F02F
:101B8000240F0BD01598C00715D13868DDE9001275
:101B9000031D3B600068C0E900120CE002A8694622
:101BA00006F03EFE1598C00705D13868029A011D5F
:101BB0003960006802604046F0E6000002FCFFFF6A
:101BC0000000F07F0000F03F2DE9FF4F92461D46D8
:101BD00085B04FF00041DDE9124BDDE914727F1E44
:101BE00001EA4B50414940F0FF4940EA0108002119
:101BF00022F020004928049102D04E2828D04CE041
:101C00003BA0012607C88DE80700A9690698641C57
:101C100088477F1E014606D41DF8060018B121F042
:101C2000200181420BD0E96906988847032E34D001
:101C3000082E32D06FF0010009B0BDE8F08F761C9D
:101C4000032E01D0082EE0D1601CCAF80000DCE7AA
:101C5000A9690698641C88477F1E2AD420F02000BA
:101C6000412826D1A9690698641C88477F1E20D484
:101C700020F020004E281CD1A9690698641C8847D2
:101C80007F1E48F4002849F48009CAF8004001D4B6
:101C9000282806D0E969069888475FEACB7012D0F9
:101CA00022E0A9690698641C88477F1E01D4002899
:101CB00003DAE96906988847BCE72928F1D1641C52
:101CC000CAF80040E9E71BF0240F07D02868049900
:101CD000031D2B600068C0E9001805E02868021D9C
:101CE0002A600068C0F800902046A5E70000F07F59
:101CF000494E46494E4954590000000001491820F8
:101D0000ABBEFEE726000200B2F120030AD5C2F105
:101D1000200301FA02F120FA03F300FA02F041EA8B
:101D20000301704700FA03F14FF00000704770475D
:101D30005FEA400C08BF91F0000F4FEA8C234FEA96
:101D4000C12243EA51514FEA1C5018BF00F5F04040
:101D50004FEA300018BF41F000415FEA6C5C00F0D0
:101D60002980BCF1FF3F08BF40F080407047130C52
:101D700006BF12044FF0100C4FF0000C130E04BFFE
:101D800012020CF1080C130F04BF12010CF1040C29
:101D9000930F04BF92000CF1020CD30F04BF52004A
:101DA0000CF1010C11464FF00002A0F11F00A0EB56
:101DB0000C00704711F0004F08BF704731F0004130
:101DC0003FF4D5AF0B0C06BF09044FF0100C4FF0D9
:101DD000000C0B0E04BF09020CF1080C0B0F04BF22
:101DE00009010CF1040C8B0F04BF89000CF1020CEB
:101DF000CB0F04BF49000CF1010CCCF12003A0EB88
:101E00000C0022FA03F302FA0CF241EA030100F19A
:101E10000100704720F07F4C80EA030023F07F47E9
:101E2000ACEB070303F57C5300F0004003F1FF0324
:101E30002DE980494FEA154B09B44FEA144325EACE
:101E40000B4E24EA03480FF2042606EB1327490839
:101E50003E785FEA320203FB0667C7F5000707FB1F
:101E600006F64FEA54374FEAD64606F1020607FB5C
:101E7000066CCCF1005C4FEA1C472CEA074C07FBD0
:101E800006F40CFB06F504EB15464FEA961634BF34
:101E900000204FF000404FEAD13706FB07FC4FEA25
:101EA0001C4C0CFB0BF7D21B03FB0CF761EB07017F
:101EB0000CFB0EF7B0EB074072EB17420CFB08F778
:101EC00034BFA2EB0742B2EB074261EB17414FEA86
:101ED0000C444FEA910706FB07FC4FEA1C4C0CFB35
:101EE0000BF7B0EBC74072EB573203FB0CF734BF74
:101EF000A2EBC742B2EBC74261EB57310CFB0EF7C6
:101F0000B0EBC70072EB57720CFB08F734BFA2EBC3
:101F1000C702B2EBC70261EB5771039F4FEA8161C1
:101F200041EA921104EBCC044FEAD1374FEA8262C6
:101F300006FB07FC42EA90124FEA80604FEA1C4C15
:101F40000CFB0BF7D21B03FB0CF761EB07010CFB3F
:101F50000EF7B0EB074072EB17420CFB08F734BFEB
:101F6000A2EB0742B2EB074261EB17414FEA8C55F7
:101F70004FEA910704EB9C2406FB07FC4FEA1C4C3C
:101F80000CFB0BF7B0EBC74072EB573203FB0CF7BF
:101F900034BFA2EBC742B2EBC74261EB57310CFB37
:101FA0000EF7B0EBC70072EB57720CFB08F734BFAB
:101FB000A2EBC702B2EBC70261EB577115EB4C25E0
:101FC0004FEA816141EA92114FEA82624FEAD137CA
:101FD00042EA901206FB07FC44F100044FEA8060DD
:101FE0004FEA1C4C0CFB0BF7D21B03FB0CF761EB0D
:101FF00007010CFB0EF7B0EB074072EB17420CFB2E
:1020000008F734BFA2EB0742B2EB074261EB17417E
:1020100015EB1C154FEA813141EA92414FEA8232B9
:1020200042EA90424FEA80304FEA0C7644F10004D5
:1020300048EA03434EEA0B484FF0000EB2EB080C9F
:1020400071EB030724BF624639464EEB0E0E4FF08C
:10205000000B0018524149414BEB0B0BB2EB080C43
:1020600071EB03077BF1000B24BF624639464EEB50
:102070000E0E4FF0000B0018524149414BEB0B0B79
:10208000B2EB080C71EB03077BF1000B24BF624637
:1020900039464EEB0E0E51EA020718BF46F0010614
:1020A00016EB0E7655F1000254F1000103D5BDE8A0
:1020B0008901BDE80088BDE88901BDE80048B6197E
:1020C000524141EB0101A3F10103704780807F7E03
:1020D0007D7C7B7A7978777676757473727171709E
:1020E0006F6E6E6D6C6C6B6A6A6968686766666550
:1020F0006464636362616160605F5F5E5E5D5D5CDE
:102100005C5B5B5A5A59595858575756565555554E
:102110005454535352525251515050504F4F4F4EAE
:102120004E4D4D4D4C4C4C4B4B4B4A4A4A494949FC
:10213000484848474747474646464545454444443E
:1021400044434343434242424241414146EA0646F8
:10215000A3F570534FEA164646EA42564FEAD2229A
:1021600042EA415210B54FEAD121A3F1010300F038
:102170002FF820F0004000F1020C00F0004701EBC6
:1021800000501146BCF5006F40EA070000D210BDB8
:10219000BAF1000F0AD01CB503B44FF004004FF0A1
:1021A00004014FF000000FBCBDE810404FF00001EB
:1021B000BBF1010FB9BF04484FF0FF3103480021C4
:1021C00040EA070010BD00BFFFFFEF7F0000F07F77
:1021D000002B9C4630D477002BD01CB54FEA370734
:1021E00003B44FF010004FF01001BAF1000F06D009
:1021F000BCF1000FDCBF40F0080040F008014FF0D8
:1022000000000FBCBDE810400BF1010BBBF1010F4A
:1022100008BF5FEA170722BF12F1010211F10101A5
:102220004FF0004143F1000300F0004043EA00009A
:102230007047F9D35708D0E746EA064613F1400F36
:102240004FEA16461FDD13F1200FDFBF16430A4683
:10225000002120335B42BED0C3F1200746EA064688
:1022600002FA07F74FEA164646EA0706C3F12007C7
:1022700022FA03F201FA07F721FA03F14FF0000303
:1022800042EA0702A7E746EA020646EA06464FEA9E
:10229000164646EA0106BCBF46EA0646360C4FF033
:1022A00000034FF000024FF0000194E72DE9804C4D
:1022B0009A46934670B491E8380007C831EA400C5A
:1022C00048BF34EA430C03D5FFF7A4FDFFF780FFB6
:1022D000F0BCBDE8008C2DE9804C9A46934670B462
:1022E00091E8380007C831EA400C48BF34EA430C93
:1022F00003D5FFF78FFDFFF729FFF0BCBDE8008C89
:102300002DE9804C9A46934670B491E8380007C88E
:1023100010F0804F08BF13F0804F03D100F01AF87F
:10232000FFF756FFF0BCBDE8008C2DE9804C9A46C3
:10233000934670B491E8380007C810F0804F08BF8A
:1023400013F0804F03D100F005F8FFF7FFFEF0BC5B
:10235000BDE8008C20F07F4780EA030023F07F4C2B
:1023600007EB0C03A3F57C5300F00040A3F1FE0340
:1023700092F0000F00F0B38095F0000F00F077802E
:102380002DE901494FEA11404FEA144621EA00487D
:1023900000FB06FC24EA064708FB06F607FB08F8E4
:1023A00000FB07F718EB06484CEB164C4FEA124BB4
:1023B00018EB07484FEA15464CEB174022EA0B4E44
:1023C0000BFB06FC25EA06470EFB06F607FB0EFE96
:1023D0000BFB07F71EEB064E4CEB164C4FF00006BE
:1023E0001EEB074E4CEB174B18EB0B0840F10000AF
:1023F00018EB0E0B58EB000840F100008F1A4FF05D
:1024000000013CBFC943661B14BFB5EB040C00219F
:102410003CBFC943F61B4FEA17444EEA8E0E27EA2B
:1024200004454FEA1C4704FB07622CEA074C05FBF6
:1024300007F70CFB05F604FB0CFC16EB074642EB1A
:10244000174216EB0C4642EB1C421BEB060658EB00
:102450000202414146EA9E0601D5BDE80189B6194E
:10246000524141EB0101A3F10103BDE801894FEAAB
:1024700014454FEA114724EA054621EA074C05FBBB
:1024800007F406FB07F70CFB06F105FB0CFC11EB50
:10249000074144EB17444FEA124711EB0C4144EB60
:1024A0001C4422EA074C05FB07F206FB07F70CFB6E
:1024B00006F605FB0CFC16EB074642EB174216EB43
:1024C0000C4642EB1C456A1854F1000148BF7047A6
:1024D000B619524141EB0101A3F10103704795F098
:1024E000000F37D04FEA11424FEA144721EA024663
:1024F00024EA074C02FB07F106FB07F70CFB06F486
:1025000002FB0CFC14EB074441EB17414FEA154763
:1025100014EB0C4441EB1C4125EA074C02FB07F588
:1025200006FB07F70CFB06F602FB0CFC16EB074656
:1025300045EB174516EB0C4645EB1C42121951F1C1
:10254000000148BF7047B619524141EB0101A3F1A8
:10255000010370474FEA14454FEA114724EA054644
:1025600021EA074C05FB07F106FB07F70CFB06F217
:102570004FF0000605FB0CFC12EB074241EB174144
:1025800012EB0C4251EB1C4148BF7047921841EBD3
:102590000101A3F10103704710B502F0EBFD10BD7E
:1025A00070B506460C46154608E03046721C96B2D9
:1025B00000F01DF804F8010B681E85B2002DF4D15F
:1025C00070BD2DE9F04107460C460026002509E0C4
:1025D00036023919491B491E88B200F008F8064432
:1025E000681CC5B2A542F3DB3046BDE8F08170B58A
:1025F0000446002602F06CFEA02002F035FE02F038
:10260000B3FE201202F030FE02F0AEFE2546E117C6
:1026100004EB11610912A4EB0121C8B202F024FEFF
:1026200002F0A2FE02F054FEA12002F01DFE02F014
:102630009BFE002002F0E0FD064602F06FFE3046F1
:1026400070BD70B505460C46164606E02178284652
:1026500000F01EF8681C85B2641C301EA6F1010152
:102660008EB2F3D170BD2DE9F04105460E461746F6
:10267000002409E0E20026FA02F2D1B22A1990B24F
:1026800000F006F8601CC4B2BC42F3DBBDE8F08188
:1026900070B504460E4602F01BFEA02002F0E4FDD9
:1026A00002F062FE201202F0DFFD02F05DFE254620
:1026B000E11704EB11610912A4EB0121C8B202F089
:1026C000D3FD02F051FE304602F0CEFD02F04CFE8A
:1026D00002F024FE0A2006F03BF970BD10B5034657
:1026E00007E018780C78A04201D0104610BD5B1CA2
:1026F000491C101EA2F10104A2B2F2D100BFF5E7FD
:1027000000BFFEE710B51248008800F40040F0B1A9
:102710000F48047800200F490855084605F00EFEC2
:102720000A2005F0E1FD0B48007818B90AA005F071
:1027300005FE06E0074804F0DFFC10B907A005F02D
:10274000FDFD08A005F0FAFD00200149088010BD3C
:1027500004000020CC0000200A0000003C4E413E56
:102760000A0000003E3E000010B50446214621A0AC
:10277000FDF756FE58B92248007818B121A005F09F
:10278000DDFD02E022A005F0D9FD012010BD2146AB
:1027900022A0FDF745FE58B923A005F0CFFD01208A
:1027A000224908702248007803F0F8FC0120EDE788
:1027B000214620A0FDF734FE58B92148007818B111
:1027C00020A005F0BBFD02E021A005F0B7FD01202F
:1027D000DCE7214621A0FDF723FE48B90020184977
:1027E00008702149086008A005F0A8FD0120CDE788
:1027F0000020CBE7697320686F6D656400000000FE
:1028000088000020484F4D453C4F4B3E0A000000D9
:10281000484F4D453C4E4F3E0A0000006D6F746FAF
:1028200072207265736574003E3E000081000020D6
:10283000A9000020697320737461727400000000A5
:102840008000002053544152543C4F4B3E0A00003C
:1028500053544152543C4E4F3E0A00007465737409
:10286000206F766572000000BC0121420146002005
:102870007047000010B50446214632A0FDF7D0FD98
:1028800050B90020354908603549C1F8840135A0A8
:1028900005F054FD012010BD214635A0FDF7C0FD17
:1028A00050B901202D4908602D49C1F8840136A096
:1028B00005F044FD0120EEE7214636A0FDF7B0FD0E
:1028C00058B901202549086000202549C1F8840134
:1028D00036A005F033FD0120DDE7214636A0FDF7E7
:1028E0009FFD50B90120394908700020384908700F
:1028F00038A005F023FD0120CDE7214637A0FDF7E4
:102900008FFD48B90020314908703149087031A065
:1029100005F014FD0120BEE7214635A0FDF780FD3E
:1029200068B92B480078012804D135A005F006FDD0
:102930000120B0E734A005F001FD0120ABE7002045
:10294000A9E700006D65617375726520636F696C3E
:102950003120746F20636F696C320000B0812142B6
:10296000008021423C43312D43323E0A00000000EA
:102970006D65617375726520636F696C3120746F6A
:1029800020676E64000000003C43312D474E443EFA
:102990000A0000006D65617375726520636F696C74
:1029A0003220746F20676E64000000003C43322DBB
:1029B000474E443E0A000000656E61626C652073FC
:1029C00074617274206B657900000000B000002013
:1029D000AF0000203C4F4B3E0A0000006469736169
:1029E000626C65207374617274206B6579000000FD
:1029F000726561647920746F20746573743F0000A0
:102A00003C5945533E0A00003C4E4F3E0A00000030
:102A100010B5044621463DA0FDF702FD50B9012046
:102A20003E49087000203E4908703EA005F086FC33
:102A3000012010BD21463DA0FDF7F2FCE0B93F4862
:102A40000078032809D101203D49087000203D4944
:102A5000087001203C49086009E0384800780528E2
:102A600005D10120394908700020394908702DA08E
:102A700005F064FC0120DCE7214636A0FDF7D0FC20
:102A8000C8B92E480078032807D100202C490870C7
:102A90002C4908702C49086008E02848007805286F
:102AA00004D1002029490870294908701DA005F0AB
:102AB00045FC0120BDE721462AA0FDF7B1FC10BB73
:102AC0001E480078032802D005281CD10DE01D48BF
:102AD0000078012804D127A005F030FC0120A8E7E8
:102AE00027A005F02BFC0120A3E719480078012856
:102AF00004D120A005F022FC01209AE720A005F0D7
:102B00001DFC012095E7002093E700006D6F746FB6
:102B10007220676F20686F6D6500000089000020DB
:102B2000880000203C4F4B3E0A0000006275747420
:102B30006F6E20656E61626C65000000A900002068
:102B4000AD000020AC00002088812242B0000020AF
:102B5000AF000020627574746F6E206469736162E7
:102B60006C650000697320627574746F6E206F6B02
:102B700000000000425554544F4E3C4F4B3E0A005B
:102B8000425554544F4E3C4E4F3E0A0070B592B0E1
:102B900005460A222FA12846FDF7F7FB002828D179
:102BA000119005F10A0600240A2211A93046FDF70A
:102BB00095FB044611980078202815D1A4B1F62C75
:102BC00012D20220009004F10A008005010C40237B
:102BD000119A521CA02002F065FA214620A005F0AF
:102BE00071FB012012B070BD22A005F0A7FB0120EF
:102BF000F8E70A2221A12846FDF7C7FB38BB0020D1
:102C0000119005F10A0600240A2211A93046FDF7A9
:102C100065FB044611980078A0B99CB1F62C11D23E
:102C20000220009004F10A008005010C402301AA53
:102C3000A02002F0C5F901AA214613A005F042FB2D
:102C40000120CFE70BA005F079FB0120CAE70020A7
:102C5000C8E700007361766520696E666F2000002A
:102C60007361766520696E666F202564204F4B0A7C
:102C7000000000003C4E413E0A00000072656164A5
:102C800020696E666F2000007265616420696E665F
:102C90006F20256420252E3634730A00F8B50446CB
:102CA000062246A1601CFDF770FB00283ED120786B
:102CB00030384449087008460078032831DA00208B
:102CC0000090E51D0A2269462846FDF707FB3D49AD
:102CD000097801EB81013C4A02EBC1014860009890
:102CE000401BC6B2002E1BDD042E19DC35480078CF
:102CF00000EB800002EBC00041683248007804F02D
:102D0000CBFD3048007800EB80002F4901EBC0007C
:102D100042682C4801782DA005F0D4FA0120F8BDB6
:102D200000BF2EA005F00AFB0120F8E709222DA123
:102D30002046FDF72AFB00282FD1009004F1090559
:102D40000A2269462846FDF7C9FA1F4948600098DB
:102D5000401BC6B2002E1BDD042E19DC084641685C
:102D6000C162416841654168002004F095FD164844
:102D7000C16A012004F090FD1348416D022004F067
:102D80008BFD114841681AA005F09CFA0120C6E7A6
:102D900012A005F0D3FA0120C1E719A12046FDF7E2
:102DA0003FFB40B90848436DC26A416817A005F06F
:102DB00089FA0120B3E70020B1E700002320616316
:102DC00063200000B500002008000020415B25645E
:102DD0002D25645D3C4F4B3E0A0000003C4E413EB9
:102DE0000A000000616C6C23206163632000000016
:102DF000415B616C6C2D25645D3C4F4B3E0A0000CD
:102E00006163632023616C6C00000000415B305DF6
:102E10003C25643E2C415B315D3C25643E2C415B8E
:102E2000325D3C25643E0A00F8B50446092221467D
:102E300010A0FDF7AAFAD0B90020009004F109050E
:102E40000A2269462846FDF749FA064600980078A6
:102E50005D2807D10098407820B9304605F034FC51
:102E60000120F8BD06A005F069FA0120F9E700206D
:102E7000F7E7000062617564726174655B000000D1
:102E80003C4E413E0A00000070B50546294619A097
:102E9000FDF7C6FA18B904F0C1F8012070BD04228C
:102EA000294615A0FDF771FA10BB002409E0201D8A
:102EB000285C5D2803D10021201D295403E0601CFB
:102EC000C4B20B2CF3DB00BF002C0CDD0B2C0ADA98
:102ED000201D285C38B9601D285C20B9281D05F02C
:102EE00007FC0120DAE706A005F028FA0120D5E763
:102EF0000020D3E766736E0066736E5B000000000F
:102F00003C4E413E0A00000010B50446214605A093
:102F1000FDF786FA18B903F0F5F9012010BD00207D
:102F2000FCE7000068656C7000000000F8B504461E
:102F3000214615A0FDF774FA18B904F081F80120B4
:102F4000F8BD0322214611A0FDF71FFAC8B90020E1
:102F50000090E51C0A2269462846FDF7BFF9C6B273
:102F6000009800785D2807D10098407820B9304655
:102F700005F0D2FB0120E3E705A005F0DFF9012011
:102F8000DEE70020DCE700006876000068765B0082
:102F90003C4E413E0A000000F0B585B0054624A134
:102FA0002846FDF73DFAB0B900240BE0611CC8B219
:102FB00001F0E2FE08B1312000E030200DF80400FD
:102FC000601CC4B2122CF1DB69461BA005F07AF933
:102FD000012005B0F0BD04221BA12846FDF7D5F95C
:102FE00018BB002004902E1D0A2204A93046FDF7CC
:102FF00075F9C4B2049800785D2811D1049840781E
:1030000070B9002C0CDD122C0ADC204601F0B4FE55
:1030100007463A4621460EA005F054F90120D8E7AC
:103020000FA005F08BF90120D3E70020D1E70000C5
:10303000696E707574730000494E505554533C25A9
:103040002E3138733E0A0000696E745B0000000088
:10305000494E545B25645D3C256C643E0A000000CB
:103060003C4E413E0A0000007CB5054609224BA1BA
:103070002846FDF78AF9002833D1687A30384A4962
:10308000087008460078032826DA03217C2004F023
:10309000E5FA454909784A0002219140084008B103
:1030A000012000E000204049097801EB81013F4AFE
:1030B00002EBC10181F820003B48007800EB800062
:1030C000114601EBC00090F820203748017838A065
:1030D00005F0F8F801207CBD39A005F02FF901209A
:1030E000F9E70A2238A12846FDF74FF998BBA87ADC
:1030F00030382D49087008460078032826DA032165
:103100007C2004F0ABFA284909784A00012191405B
:10311000084008B1012000E000202349097801EBB4
:103120008101224A02EBC10181F821001E4800788A
:1031300000EB8000114601EBC00090F821201A48F6
:10314000017824A005F0BEF80120C4E71CA005F01A
:10315000F5F80120BFE7FFE722A12846FDF760F957
:10316000C8B903217C2004F079FA064600240AE05D
:1031700020202041304008B1312000E030200DF8FF
:103180000400601CC4B2062CF2DB694618A005F0EE
:1031900099F801209FE700209DE700006973206CEB
:1031A0006566742023000000B500002008000020A0
:1031B0005245464C5B25645D3C25643E0A00000098
:1031C0003C4E413E0A0000006973207269676874D2
:1031D00020230000524546525B25645D3C25643E39
:1031E0000A0000006973206C696D697400000000BA
:1031F0004C494D49543C252E36733E0A00000000D0
:10320000F8B504460A22ACA1601CFDF7BEF8002800
:103210007ED1E07A2B2802D0E07A2D287BD120784D
:103220003038A849087008460078032873DA00206F
:10323000009004F10C050A2269462846FDF74EF875
:10324000A049097801EB81019F4A02EBC1010861A5
:103250000098401BC6B2002E5CDD082E5ADC9B484D
:1032600098490978405CF8B1964A127802EB8202DC
:10327000954B53F83210934A1278062343EA4212D0
:10328000D0B205F0FEF98F48007800EB80008E4A3E
:1032900002EBC00041688B48007804F0FDFA002082
:1032A0008A49884A1278885402218648007804F0B6
:1032B000CFFAE07A2B2810D1824A127802EB8202F0
:1032C000814B03EBC20211697E4A1278002343EA64
:1032D0004212D0B205F0C2F910E07A4A127802EB3D
:1032E0008202794B03EBC20212695142754A12788D
:1032F000002343EA4212D0B205F0B0F90021714830
:10330000007804F0A5FA72A005F018F80120F8BDC5
:1033100006E000E000BF70A005F010F80120F6E71D
:1033200007226FA1601CFDF730F800287ED1207ABB
:103330002B2802D0207A2D2879D120783038614985
:10334000087008460078032871DA0020009004F124
:1033500009050A2269462846FCF7C0FF5949097841
:1033600001EB8101584A02EBC10108610098401B42
:10337000C6B2002E71DD082E6FDC54485149097821
:10338000405CF8B14F4A127802EB82024E4B53F880
:1033900032104C4A1278062343EA4212D0B205F0AA
:1033A00070F94848007800EB8000474A02EBC00003
:1033B00041684448007804F06FFA00204349414ACC
:1033C0001278885402213F48007804F041FA207AAC
:1033D0002B281AD13B490978022242EA4111C8B28E
:1033E00004F005F93749097801EB8101364A02EB0F
:1033F000C1010969471833490978002242EA41119D
:10340000C8B2394605F02AF91CE02E490978022293
:1034100042EA4111C8B204F0EAF82A49097801EBFE
:103420008101294A02EBC101096901E01BE015E0B5
:10343000471A24490978002242EA4111C8B23946A4
:1034400005F00CF900211F48007804F001FA26A0CD
:1034500004F074FF01205AE7FFE700BF1EA004F04C
:103460006DFF012053E7062221A1601CFCF78DFFB0
:1034700000BB2078303813490870084600780328CC
:1034800013DA02210F48007804F0E2F90D490978B7
:10349000082242EA4111C8B205F006F9094801784C
:1034A00015A004F00FFF012031E70BA004F046FF48
:1034B00001202CE700202AE723206D6F7665207419
:1034C0006F200000B500002008000020B20000209E
:1034D0003C4F4B3E0A0000003C4E413E0A000000BB
:1034E00023206D6F766520003C4F4B3E0D0A000097
:1034F000232073746F70000053544F505B25645D3C
:103500003C4F4B3E0D0A00007CB50446082230A11A
:103510002046FCF73AFFE0B92046FCF717FF1728D2
:1035200016D1A07D5D2813D1E07D88B9012508E082
:10353000E81D205C3038C1B2284604F03FFC681C0E
:10354000C5B20F2DF4DB25A004F0BCFE01207CBD2C
:1035500000BF042223A12046FCF717FF002834D126
:103560000190201D00900A2201A90098FCF7B6FEE8
:10357000C5B2019800785D2822D1019840785B2877
:103580001ED1002D1CDD0E2D1ADC002000900A2219
:1035900069460198801CFCF7A1FEC6B2009800782D
:1035A0005D280DD10098407850B93146284604F086
:1035B00005FC324629460DA004F084FE0120C6E732
:1035C0000FA004F0BBFE0120C1E70020BFE7000010
:1035D0006F7574707574735B000000003C4F4B3E58
:1035E0000A0000006F75745B000000004F55545BCB
:1035F00025645D5B25645D3C4F4B3E0A0000000086
:103600003C4E413E0A00000010B5044627A120466A
:10361000FCF706FFB8B9022003F0E9FF274948612B
:10362000222003F0E4FF2549C863422003F0DFFFB6
:10363000224948660846436EC26B416920A004F0E7
:1036400041FE012010BD0A2224A12046FCF79DFE68
:1036500050BBA07A30382449087008460078032807
:103660001DDA0978022242EA4111C8B203F0BFFF15
:103670001D49097801EB8101104A02EBC101486143
:103680001948007800EB8000114601EBC000426948
:103690001548017815A004F015FE0120D2E716A008
:1036A00004F04CFE0120CDE70020CBE7706F73697A
:1036B00074696F6E2023616C6C00000008000020AC
:1036C000505B305D3C25643E2C505B315D3C256495
:1036D0003E2C505B325D3C25643E0A00706F73697E
:1036E00074696F6E20230000B5000020505B2564D4
:1036F0005D3C25643E0A00003C4E413E0A0000004D
:1037000070B504460A224CA12046FCF73EFE002874
:1037100031D1A07A30384B49087008460078032828
:1037200024DA03F0A9FF474909784A0001219140B2
:10373000084008B1012000E000204249097801EB6F
:103740008101414A02EBC10181F823003D48007824
:1037500000EB8000114601EBC00090F823203948AF
:1037600001783AA004F0AEFD012070BD3BA004F04A
:10377000E5FD0120F9E709223AA12046FCF705FE04
:10378000002856D103217C2003F068FF0546607AAB
:1037900030382C49087008460078032844DA097844
:1037A0000A2242EA4111C8B203F03EFF50B901209B
:1037B0002449097801EB8101234A02EBC10181F818
:1037C000220009E000201F49097801EB81011E4A0F
:1037D00002EBC10181F8220005F00300032803D1A8
:1037E0000120194981F8220005F00C000C2803D1B2
:1037F0000121154880F84A1005F03000302803D127
:103800000121114880F872100E48007800EB80000A
:103810000D4901EBC00090F822200A48017814A05D
:1038200004F050FD0120A0E70CA004F087FD01206A
:103830009BE7002099E70000697320726561636867
:1038400020230000B500002008000020524541431D
:10385000485B25645D3C25643E0A00003C4E413EC9
:103860000A00000069732073746F70202300000049
:1038700053544F505B25645D3C25643E0A000000B4
:1038800070B50446042223A12046FCF77EFD0028E3
:103890003DD1257960795D2834D1A079002831D1D6
:1038A000722D0AD140201D4908603020091D086092
:1038B0001BA004F043FD012070BD672D0AD120201C
:1038C000164908605020091D086018A004F036FD54
:1038D0000120F1E7622D0AD1102010490860602014
:1038E000091D086014A004F029FD0120E4E7202D43
:1038F00008D170200949091D086012A004F01EFDBE
:103900000120D9E712A004F019FD0120D4E700201E
:10391000D2E700007267625B0000000010140140F3
:103920005247425B525D3C4F4B3E0A005247425B5E
:10393000475D3C4F4B3E0A005247425B425D3C4F65
:103940004B3E0A005247425B205D3C4F4B3E0A0013
:103950003C4E413E0A0000002DE9FE438046042211
:1039600044A14046FCF711FD002845D1029008F122
:103970000400019000250A2202A90198FCF7AEFC80
:1039800085B2029800785D2835D1029840785B288E
:1039900031D1002D2FDD652D2DDA0020019001A9F8
:1039A0000298801C05F0F0FC064605F027FD00900B
:1039B000019800785D281ED101984078D8B900247C
:1039C0000AE01DF80410642202EB8502224490B242
:1039D000FEF75EFE601CC4B2042CF2DB009806F019
:1039E000B1F8064632460B46294624A004F06AFC8C
:1039F0000120BDE8FE8300BF04221EA14046FCF763
:103A0000C4FC002834D1029008F1040900250A22E0
:103A100002A94846FCF762FC85B2029800785D284E
:103A200021D102984078F0B9002D1CDD652D1ADAFD
:103A300000240AE0642101EB8501214488B2FEF7ED
:103A4000D6FD01A90855601CC4B2042CF2DB019814
:103A500006F078F8064632460B4629460CA004F0DC
:103A600031FC0120C5E70EA004F068FC0120C0E78E
:103A70000020BEE7726F6D5B00000000524F4D5B8F
:103A800025645D5B252E33665D3C4F4B3E0A00008E
:103A9000524F4D5B25645D3C252E33663E0A000087
:103AA0003C4E413E0A000000F8B50446092239A107
:103AB000601CFCF76AFC002869D1A07A2B2802D090
:103AC000A07A2D285ED12078303835490870084614
:103AD0000078032856DA0020009004F10B050A2232
:103AE00069462846FCF7FAFB2D49097801EB81016C
:103AF0002C4A02EBC10188610098401BC6B2002E1F
:103B00003FDD042E3DDC01212748254A12788154EF
:103B100002212348007803F09BFE21490978062200
:103B200042EA4111C8B240F2FF7104F0AAFDA07A46
:103B30002B2810D11A4A127802EB8202194B03EBA0
:103B4000C2029169164A1278082343EA4212D0B29F
:103B500004F097FD10E0124A127802EB8202114B3A
:103B600003EBC202926951420D4A1278082343EADC
:103B70004212D0B204F085FD0CA004F0DFFB01205E
:103B8000F8BD00BF0BA004F0D9FB0120F8E700202E
:103B9000F6E700002320726F746174652000000056
:103BA000B500002008000020B20000203C4F4B3E32
:103BB0000A0000003C4E413E0A000000FEB50446EB
:103BC0000B22FEA1601CFCF7E0FB002872D12078DC
:103BD0003038FD4908700846007803286BDA002069
:103BE000029004F10C050A2202A92846FCF776FB94
:103BF000F549097801EB8101F44A42F83100029855
:103C0000401BC6B2002E7DDD042E7BDCEE4A12780E
:103C100002EB8202ED4B53F83210EB4A1278062386
:103C200043EA4212D0B204F02CFDE94800780328A0
:103C300069D0E648007B05287BD1E448407B082812
:103C4000FAD1E148007800EB8000E04951F83000FB
:103C50004B2809D21420DC49097801EB8101DB4AA9
:103C600002EBC1014860D0E0D748007800EB80004B
:103C7000D64951F83000652809D22320D249097865
:103C800001EB8101D14A02EBC1014860BDE0CE48A1
:103C9000007800EB8000CD4951F8300083280BD22A
:103CA0003C20C949097801EB8101C84A02EBC101F6
:103CB0004860AAE0FEE3FEE3C348007800EB800022
:103CC000C24951F83000AB2809D26420BE490978B6
:103CD00001EB8101BD4A02EBC101486095E0BA48A1
:103CE000007800EB8000B94951F83000E7280BD28A
:103CF000B420B549097801EB8101B44A02EBC10156
:103D0000486082E0FEE3A3E1AF48007800EB80006A
:103D1000AE4951F83000B0F59B7F0BD84FF4A57039
:103D2000A949097801EB8101A84A02EBC101486069
:103D30006BE076E0A448007800EB8000A34951F8DE
:103D40003000B0F5C87F0AD840F226209E49097895
:103D500001EB81019D4A02EBC101486055E09A48A0
:103D6000007800EB8000994951F8300040F227219B
:103D700088420AD24FF47A709349097801EB8101A5
:103D8000924A02EBC10148603FE08F48007800EBA7
:103D900080008E4951F8300040F2EF2188420AD26B
:103DA0004FF4E1608849097801EB8101874A02EB11
:103DB000C101486029E08448007800EB8000834915
:103DC00051F8300040F22A3188420AD240F2FF70A6
:103DD0007D49097801EB81017C4A02EBC101486011
:103DE00013E07948007800EB8000784951F8300002
:103DF000B0F5006F09D240F2FF707349097801EB0A
:103E00008101724A02EBC10148606F48007800EB03
:103E100080006E4A02EBC00041686B48007803F0F6
:103E20003BFD6A48007B05281AD16848407B06287C
:103E3000FAD16548007800EB8000644951F8300001
:103E400064280ED207216048007803F025FD072082
:103E50005D49097801EB81015C4A02EBC1014860D0
:103E600081E35948007800EB8000584951F8300050
:103E70008C280ED20F215448007803F00DFD0F203E
:103E80005149097801EB8101504A02EBC1014860B8
:103E900069E34D48007800EB80004C4951F8300050
:103EA000B0F58C7F0ED21E214748007803F0F4FC59
:103EB0001E204549097801EB8101444A02EBC1010A
:103EC000486050E34048007800EB80003F4951F8DB
:103ED0003000B0F5D27F0ED278213B48007803F055
:103EE000DBFC78203849097801EB8101374A02EB85
:103EF000C101486037E33448007800EB8000334963
:103F000051F83000B0F50C7F0ED2C8212E48007851
:103F100003F0C2FCC8202C49097801EB81012B4A2F
:103F200002EBC10148601EE32748007800EB8000E7
:103F3000264951F83000B0F52F7F10D24FF4C871E8
:103F40002148007803F0A8FC4FF4C8701E49097896
:103F500001EB81011D4A02EBC101486003E31A48ED
:103F6000007800EB8000194951F83000B0F5527F1D
:103F700010D24FF42F711448007803F08DFC4FF4E9
:103F80002F701149097801EB8101104A02EBC10140
:103F90004860E8E20C48007800EB80000B4951F8DB
:103FA0003000B0F5757F1DD24FF47A710648007865
:103FB00003F072FC4FF47A7003490BE0232076651E
:103FC0006C6F636974792000B50000200800002040
:103FD000A9000020097801EB8101F84A02EBC10138
:103FE0004860C0E2F648007800EB8000F34951F8E1
:103FF0003000762810D840F21451F148007803F0D0
:104000004BFC40F21450EE49097801EB8101EB4A78
:1040100002EBC1014860A6E2E948007800EB8000AD
:10402000E64951F8300040F2FF71884296D24FF4D1
:10403000E161E348007803F02FFC4FF4E160E049D0
:10404000097801EB8101DD4A02EBC10148608AE297
:10405000DA48007B072877D1D848407B0D2873D1F8
:10406000D748007800EB8000D44951F830004B2845
:1040700009D20520D249097801EB8101CF4A02EB30
:10408000C1014860A0E0CE48007800EB8000CB4939
:1040900051F83000652809D22D20C949097801EB73
:1040A0008101C64A02EBC10148608DE0C448007836
:1040B00000EB8000C14951F83000832809D250201C
:1040C000BF49097801EB8101BC4A02EBC10148609C
:1040D0007AE0BB48007800EB8000B84951F8300026
:1040E000AB2809D28220B649097801EB8101B34A95
:1040F00002EBC101486067E0B148007800EB800046
:10410000AE4951F83000E72809D2E620AC490978D9
:1041100001EB8101A94A02EBC101486054E0A848C3
:10412000007800EB8000A54951F83000B0F59B7F86
:104130000BD84FF4D270A249097801EB81019F4A54
:1041400002EBC10148603FE04BE09D48007800EB86
:1041500080009A4951F83000B0F5C87F0AD840F283
:10416000EE209749097801EB8101944A02EBC101E5
:10417000486029E09248007800EB80008F4951F8B0
:10418000300040F2272188420AD240F2E2408C49B6
:10419000097801EB8101894A02EBC101486013E013
:1041A0008748007800EB8000844951F83000B0F572
:1041B000006F09D240F2FF708149097801EB81015B
:1041C0007E4A02EBC10148607D48007800EB800028
:1041D0007A4A02EBC00041687948007803F05CFB42
:1041E000C1E17748007800EB8000744951F8300055
:1041F00019281CD27248007800EB80000A4652F859
:104200003000411D6E48007803F046FB6C48007892
:1042100000EB8000694951F83000401D6849097879
:1042200001EB8101654A02EBC10148609BE16448F2
:10423000007800EB8000614951F8300064281DD2FD
:104240005F48007800EB80000A4652F8300000F129
:104250000A015B48007803F01FFB5948007800EB27
:104260008000564951F830000A305549097801EB71
:104270008101524A02EBC101486074E15048007864
:1042800000EB80004D4951F8300096281DD24C4873
:10429000007800EB80000A4652F8300000F11E0161
:1042A0004748007803F0F8FA4548007800EB8000B2
:1042B000424951F830001E304149097801EB810133
:1042C0003E4A02EBC10148604DE13D48007800EBF9
:1042D00080003A4951F83000B0F58C7F1DD2384843
:1042E000007800EB80000A4652F8300000F13C01F3
:1042F0003348007803F0D0FA3148007800EB8000B2
:104300002E4951F830003C302D49097801EB8101EC
:104310002A4A02EBC101486025E12948007800EBF8
:104320008000264951F83000B0F5D27F1DD22448D4
:10433000007800EB80000A4652F8300000F164017A
:104340001F48007803F0A8FA1D48007800EB8000B1
:104350001A4951F8300064301949097801EB81019C
:10436000164A02EBC1014860FDE01548007800EBF9
:104370008000124951F83000B0F50C7F22D210486D
:10438000007800EB80000A4652F8300000F19601F8
:104390000B48007803F080FA0948007800EB8000B1
:1043A000064951F8300096300549097801EB810142
:1043B000024A02EBC1014860D5E00000080000207D
:1043C000B5000020C048007800EB8000BF4951F8DC
:1043D0003000B0F52F7F1DD2BB48007800EB800085
:1043E0000A4652F8300000F1C801B748007803F0DF
:1043F00053FAB548007800EB8000B44951F830001A
:10440000C830B149097801EB8101B04A02EBC10122
:104410004860A8E0AC48007800EB8000AB4951F858
:104420003000B0F5527F1DD2A748007800EB800025
:104430000A4652F8300000F1FA01A348007803F070
:104440002BFAA148007800EB8000A04951F8300019
:10445000FA309D49097801EB81019C4A02EBC101C8
:10446000486080E09848007800EB8000974951F858
:104470003000B0F5757F21D29348007800EB8000C2
:104480000A4652F8300000F596718F48007803F024
:1044900003FA8D48007800EB80008C4951F8300019
:1044A00000F596708849097801EB8101874A02EB93
:1044B000C10101E06CE066E0486054E082480078A9
:1044C00000EB8000814951F8300040F29C41884265
:1044D00020D87D48007800EB80007C4A52F83000FC
:1044E00000F5AF717848007803F0D6F97648007887
:1044F00000EB8000754951F8300000F5AF7072494B
:10450000097800E03DE001EB8101704A02EBC10156
:10451000486028E06C48007800EB80006B4951F857
:10452000300040F2FF7188421DD26748007800EBEE
:104530008000664A52F8300000F516716248007833
:1045400003F0AAF96048007800EB80005F4951F859
:10455000300000F516705C49097801EB81015B4A77
:1045600002EBC10148605848007800EB80005749D1
:1045700051F830205448017855A003F0A3FE0120E3
:10458000FEBD0020FCE757A003F0D8FE0120F7E7AE
:104590000E2256A12046FBF7F8FE90BB00200290A9
:1045A00004F10C050A2202A92846FBF797FE4749A9
:1045B00008600298401BC6B2002E1DDD042E1BDCD5
:1045C0000846006888620846006808650846016871
:1045D000062004F056F83D48816A262004F051F880
:1045E0003A48016D462004F04CF83848016843A071
:1045F00003F068FE0120C3E73AA003F09FFE01200C
:10460000BEE7FFE741A12046FBF70AFFF8B90A2001
:1046100003F00AF82D49C8612A2003F005F82B4958
:1046200048644A2003F000F82849C8660846C16E6D
:10463000406C264AD269CDE9002002912348036DDF
:10464000826A016835A003F03DFE012098E70A2246
:1046500042A12046FBF799FE90BBA07A30381A4958
:10466000087008460078032825DA09780A2242EA09
:104670004111C8B202F0D8FF1349097801EB81015A
:10468000124A02EBC101C8610F48007800EB8000BC
:10469000114601EBC000C06900900B48007800EBA8
:1046A000800051F830200848037801782EA003F0EC
:1046B00009FE012064E70BA003F040FE01205FE744
:1046C000FFE700205CE70000B500002008000020A4
:1046D000567365745B25642D25645D3C4F4B3E0A23
:1046E000000000003C4E413E0A000000616C6C235B
:1046F0002076656C6F636974792000005673657469
:104700005B25645D3C4F4B3E0A00000076656C6F94
:10471000636974792023616C6C00000056736574C2
:104720005B305D3C25643E2C567365745B315D3CAB
:1047300025643E2C567365745B325D3C25643E2CCB
:10474000565B305D3C25643E2C565B315D3C2564F8
:104750003E2C565B325D3C25643E0A0076656C6FEC
:104760006369747920230000567365745B25645D6A
:104770003C25643E2C565B25645D3C25643E0A0066
:10478000F8B50446214615A0FBF74AFE18B902F019
:1047900085FC0120F8BD0322214611A0FBF7F5FDA1
:1047A000C8B900200090E51C0A2269462846FBF79C
:1047B00095FDC6B2009800785D2807D10098407832
:1047C00020B9304603F0D8FF0120E3E705A003F04D
:1047D000B5FD0120DEE70020DCE700007376000075
:1047E00073765B003C4E413E0A00000070B500F05D
:1047F000A3FB044654A003F0A1FD00205949086022
:1048000001205949C1F88401642004F0A1F81CE09A
:1048100000F092FB051B002D01DB284600E06842FA
:10482000B0F57A7F11DD514803F088FD50480068EB
:1048300080F080004E4908604020091D086030204B
:10484000091D086000F078FB04464A48006801280A
:1048500003D14848001D006808B1012000E0002095
:104860000028D5D13F490C31086001203E49C1F8EC
:104870008801642004F06CF81CE000F05DFB051B6F
:10488000002D01DB284600E06842B0F57A7F11DD9B
:10489000394803F053FD3648006880F08000344901
:1048A00008604020091D08603020091D086000F0E4
:1048B00043FB04462F480C300068012803D12D48E3
:1048C0000830006808B1012000E000200028D4D1A1
:1048D0002A49086001202A49C1F8B001642004F087
:1048E00037F81CE000F028FB051B002D01DB2846F3
:1048F00000E06842B0F57A7F11DD224803F01EFD2A
:104900001B48006880F08000194908604020091D9C
:1049100008603020091D086000F00EFB04461A48AC
:104920000068012803D11848001D006808B1012063
:1049300000E000200028D5D110200D49091D086095
:104940006020091D086070BD0A3E3E43796C696EA7
:1049500064657220726573657474696E672E2E2E9D
:104960000A0000008081224200802242449F000809
:104970000C14014008012342A89E0008AC01224209
:1049800000002242F89E00081C812142704700006E
:10499000F8B50020FDF72BFE562840D000241DE07E
:1049A00004EB44031F4E06EBC3031A7A04EB4403E3
:1049B00006EBC303596904EB440306EBC3039B886E
:1049C00098B2FDF750FE0A2217A14020FDF739FEEC
:1049D00056210020FDF75CFE601CC4B2042CDFDB16
:1049E0001448009001250FE0002409E01DF8041090
:1049F000642202EB85021019FDF74AFE601CC4B266
:104A0000042CF3DB681CC5B2042DEDDB0020FDF7A0
:104A1000EEFD562801D10120F8BD0020FCE7012061
:104A2000FAE70000709D0008494E332D534D432D89
:104A300030310000000048430A48006830B9094896
:104A4000001D0068012801D100207047054800685A
:104A5000012805D10348001D006808B90120F4E7CA
:104A60000320F2E70C0123420A480068012805D11F
:104A70000848001D006808B9002070470548006814
:104A800028B90448001D0068012800D1F5E703207B
:104A9000F3E700001881214210B5022000F054FA1B
:104AA00000200449087004A003F00CFC042000F06E
:104AB00019F810BD8900002073746F70206D6F7439
:104AC0006F72207A2064756520746F207072657330
:104AD00073757265206F7665726869676821212138
:104AE0000D0A0000014908607047000014040140ED
:104AF000002123498279002A3AD00A4612680368C5
:104B00009A430B461A600A1D126803689A430B1DEC
:104B10001A60027911440A6803681A430A60184A45
:104B20000832126803689A43154B08331A601A1D3D
:104B3000126803689A43124B0C331A604279102AA8
:104B40000ED11A1F126803681A430D4B08331A60FE
:104B50001A1D126803681A43094B0C331A600DE0E2
:104B60000749427911440A6803681A430A6005E05C
:104B7000027911440A6803689A430A60704700008A
:104B80000004014062B6704730B500228B071C0F4D
:104B90000F2303FA04F20B4B8C1053F82430934389
:104BA000084C8D1044F8253023468C1053F82430DF
:104BB0008C07240F00FA04F42343024C8D1044F8B0
:104BC000253030BD080001402DE9F04102460025A6
:104BD0000026002000230024002791F803C00CF0D9
:104BE0000F0591F803C00CF0100CBCF1000F03D0BE
:104BF00091F802C04CEA050591F800C0BCF1000F25
:104C000031D0146800202BE04FF0010C0CFA00F3B7
:104C1000B1F800C00CEA03069E4220D183004FF099
:104C20000F0C0CFA03F7BC4305FA03FC4CEA04042E
:104C300091F803C0BCF1280F06D14FF0010C0CFA1B
:104C400000FCC2F814C00AE091F803C0BCF1480FA0
:104C500005D14FF0010C0CFA00FCC2F810C0401C4A
:104C60000828D1D31460B1F800C0BCF1FF0F34DDC7
:104C7000546800202EE000F1080C4FF0010808FAFB
:104C80000CF3B1F800C00CEA03069E4221D1830068
:104C90004FF00F0C0CFA03F7BC4305FA03FC4CEA87
:104CA000040491F803C0BCF1280F05D100F1080CF1
:104CB00008FA0CF8C2F8148091F803C0BCF1480F50
:104CC00007D100F1080C4FF0010808FA0CF8C2F8FF
:104CD0001080401C0828CED35460BDE8F08100004D
:104CE000F0B50A46002300240021002500F000460C
:104CF000B6F1004F02D11D4EF16901E01B4E716803
:104D0000C0F3034583B200F44016B6F5401F08D146
:104D100021F07061154E766826F07066134F7E6044
:104D200012E000F48016B6F5801F06D1032606FABD
:104D300005F4A14341F0706106E0460D360103FA27
:104D400006F6B14341F0706122B1460D360103FA17
:104D500006F6314300F00046B6F1004F02D1034E93
:104D6000F16101E0014E7160F0BD00000000014002
:104D7000416170470161704738B504466848007862
:104D800078BB082C2DDD0120654908700121042025
:104D900002F028FB0121082002F024FB0121102051
:104DA00002F020FB0121202002F01CFB0121402009
:104DB00002F018FB03208DF8020048208DF8030054
:104DC0004AF20200ADF8000069465648FFF7FCFEC3
:104DD0004FF49850ADF8000069465348FFF7F4FED1
:104DE00000BF132C6FD2DFE804F0980A11192129B3
:104DF00031384048505860687178808890004B483E
:104E0000006808B9012038BD0020FCE74748001DB4
:104E1000006808B90120F6E70020F4E743480830AD
:104E2000006808B90120EEE70020ECE73F480C30AD
:104E3000006808B90120E6E70020E4E73B481030AD
:104E4000006808B90120DEE70020DCE73848006888
:104E500008B90120D7E70020D5E73548001D0068D4
:104E600008B90120CFE70020CDE7314808300068BD
:104E700008B90120C7E70020C5E72D480C300068BD
:104E800008B90120BFE70020BDE7294810300068BD
:104E900008B90120B7E70020B5E7254814300068BD
:104EA00008B90120AFE70020ADE7214818300068BD
:104EB00008B90120A7E70020A5E71C4810380068C2
:104EC00010B901209FE728E000209CE719480068FE
:104ED00008B9012097E7002095E7164810300068D0
:104EE00008B901208FE700208DE71248001D0068F7
:104EF00008B9012087E7002085E70C4828300068C2
:104F000008B901207FE700207DE7084820300068CD
:104F100008B9012077E7002075E7FF2073E700005C
:104F200007000020000C01400014014014812142C0
:104F3000000123422081224201480068704700009E
:104F40000000002000BFFEE710B50446E0B20221D9
:104F500002F07EFC082141EA4411C8B203F0A4FB30
:104F60000A2141EA4411C8B203F09EFB10BD0000C3
:104F700010B500200F4908600F48006820F4704009
:104F80000D4908600846006840F440500860002061
:104F90000A49C1F88C01022003F0E3FC0120054915
:104FA0000860022003F0DDFC00200449C1F89001F4
:104FB00010BD000090812142000C01400080214280
:104FC0002DE9F04705460C4616461F46DDF82080C1
:104FD00000F07EF9B8F1030F19D1A146E11704EBF7
:104FE00011610912FE2202EB410101EA050000F005
:104FF0003BF900F0B9F9E11704EB11610912A4EBD8
:105000000121C8B200F030F900F0AEF92FE0B8F19C
:10501000020F17D105F0FE0000F026F900F0A4F908
:10502000201200F021F900F09FF9A146E11704EBEE
:1050300011610912A4EB0121C8B200F015F900F0CA
:1050400093F914E0B8F1010F11D105F0FE0000F062
:105050000BF900F089F9A146E11704EB116109127F
:10506000A4EB0121C8B200F0FFF800F07DF900F0D8
:105070002FF945F0010000F0F7F800F075F906E0AF
:10508000781EC7B2012000F0B7F806F8010B012F17
:10509000F6D1002000F0B0F806F8010B00F03EF960
:1050A000BDE8F0872DE9F04705460C4616469946BF
:1050B000089F00F00DF9032F19D1A046E11704EB6A
:1050C00011610912FE2202EB410101EA050000F024
:1050D000CBF800F049F9E11704EB11610912A4EBD8
:1050E0000121C8B200F0C0F800F03EF92DE0022F17
:1050F00017D105F0FE0000F0B7F800F035F92012E6
:1051000000F0B2F800F030F9A046E11704EB1161AD
:105110000912A4EB0121C8B200F0A6F800F024F9AE
:1051200013E0012F11D105F0FE0000F09DF800F012
:105130001BF9A046E11704EB11610912A4EB012150
:10514000C8B200F091F800F00FF905E016F8010B75
:1051500000F08AF800F008F9B9F10000A9F10101A6
:1051600001F0FF09F2D100F0D9F80A2003F0F0FBBA
:10517000BDE8F08708B50121082002F033F91820B6
:10518000ADF8000010208DF8030003208DF8020018
:1051900069460448FFF718FD18210248FFF7EAFDA9
:1051A00008BD0000000C014010B500200F49086048
:1051B0000F48006820F470400D49086008460068F8
:1051C00040F44050086001200A49C1F88C010220D7
:1051D00003F0C7FB012005490860022003F0C1FB72
:1051E00000200449C1F8900110BD000090812142C7
:1051F000000C01400080214270B50546002417488C
:10520000006820F47040154908600846006840F4C2
:1052100000400860002616E00020114908600220C6
:1052200003F09FFB01200F49C1F890016006040EB6
:105230000B488438006808B1601CC4B2012003F038
:1052400090FB701CC6B2082EE6DB15B9FFF7ACFF69
:1052500001E0FFF78DFE204670BD0000000C01400C
:10526000908121420080214270B5044615480068B3
:1052700020F47040134908600846006840F440502C
:105280000860002010490860002517E0E0090E4979
:10529000091F08606006040E022003F062FB012073
:1052A0000A49C1F89001022003F05BFB0020064987
:1052B0000860022003F055FB681CC5B2082DE5DB31
:1052C00070BD0000000C014090812142008021420D
:1052D00010B50F48006820F470400D49086008467A
:1052E000006840F44050086001200A4908600A49FB
:1052F000C1F89001042003F034FB00200549086048
:10530000042003F02EFB00200349C1F8900110BDDA
:10531000000C01408C8121420080214210B50F48D1
:10532000006820F470400D4908600846006840F4A9
:105330004050086000200A4908600A49C1F88C0101
:10534000042003F00EFB0120054908600549C1F85F
:105350008C01042003F005FB10BD0000000C01408F
:10536000908121420080214210B500241448006839
:1053700020F47040124908600846006840F400407C
:10538000086001200F49086003F0EBFA01200E4984
:10539000C1F8900103F0E5FA07E0601CC4B2FA2CF2
:1053A00003DDFFF7BBFF012010BD06488038006811
:1053B0000028F2D10349091D086000BFF4E700008E
:1053C000000C01408C8121420080214238B56548A3
:1053D000007888BB0120634908700121042002F095
:1053E00001F80121082001F0FDFF0121102001F04A
:1053F000F9FF0121202001F0F5FF0121402001F0FB
:10540000F1FF4FF47870ADF8000003208DF8020032
:1054100010208DF8030069465348FFF7D5FB7F2025
:10542000ADF8000003208DF8020010208DF8030075
:1054300069464E48FFF7C8FBFFF77EFD4C490968F7
:10544000441A002C01DB204600E06042B0F57A7F70
:105450003FDD0120474908604749C1F89C014549A3
:1054600010310860454908604449083108604349E3
:105470001031086000203F49091D08603D490C318A
:1054800008603E49091F08603C49091D08603B4906
:105490000C3108603949143108600120384908602E
:1054A00038490860384908603749083108600020E9
:1054B0003449091F08603349091D08603249091D34
:1054C000086031490C310860FFF736FD2849086053
:1054D00047E0FFF731FD26490968441A002C01DB3B
:1054E000204600E06042B0F5FA7F3ADD0020214915
:1054F00008602149C1F89C011E49103108601F490C
:1055000008601E49083108601C49103108600120FC
:105510001849091D086017490C3108601749091F0F
:1055200008601649091D086014490C3108601349C8
:1055300014310860002012490860124908601249BD
:10554000086011490831086001200E49091F0860F0
:105550000C49091D08600C49091D08600B49C1F878
:105560008C0138BDA8000020000C0140001801404B
:10557000A400002094812142008021428401234222
:10558000BC012142AC0122428081224200802242A1
:1055900070B500250BE0002405E044EA4511C8B2CF
:1055A00003F082F8641C1C2CF7D9681CC5B2032DCB
:1055B000F1DB3B480078032805D140F23B1168201D
:1055C00003F04CF804E04FF49971682003F046F8BA
:1055D0000223042200217E2003F02CF83148017BB5
:1055E000407B61F31F10C2B204230021182003F096
:1055F00021F82C4890F8341090F8350061F31F1012
:10560000C2B204230021382003F014F8254890F892
:105610005C1090F85D0061F31F10C2B204230021FA
:10562000582003F007F800231A461946142003F007
:1056300001F800231A461946342002F0FBFF00232C
:105640001A461946542002F0F5FF0121042003F008
:1056500018F80121242003F014F80121442003F05C
:1056600010F810480168062002F0F8FF0D48416864
:10567000002002F011F90B48816A262002F0EEFFAB
:105680000848C16A012002F007F90648016D46206A
:1056900002F0E4FF0348416D022002F0FDF870BD06
:1056A000A9000020080000200EB50121084601F0E5
:1056B00099FE02210420FFF767FA042001900020E0
:1056C0008DF8080008208DF8090001208DF80A00E7
:1056D00001A8FFF70DFA08208DF8000004208DF8CE
:1056E000010000208DF8020001208DF803006846BB
:1056F00000F0C4FD0EBD000008B50121042001F03A
:1057000071FE0121082001F06DFE0121102001F041
:1057100069FE0121202001F065FE0121402001F0F9
:1057200061FE0121084601F05DFE01212F48FFF7CF
:10573000D7FA4FF40040ADF8000010208DF80300B8
:1057400003208DF8020069462948FFF73DFA4FF41F
:1057500000412748FFF70CFB4FF4E050ADF8000084
:1057600069462448FFF730FA4FF4E0512148FFF72B
:10577000FFFA0F20ADF8000069461F48FFF724FA32
:105780000F211D48FFF7F4FAF020ADF8000069463C
:105790001948FFF719FAF0211748FFF7E9FA4FF413
:1057A0007870ADF8000003208DF8020048208DF8D5
:1057B000030069461148FFF707FA7F20ADF80000A3
:1057C00003208DF8020048208DF8030069460C483C
:1057D000FFF7FAF94FF44050ADF8000028208DF89B
:1057E000030069460648FFF7EFF908BD00023000E4
:1057F000000801400010014000140140000C01406D
:105800000018014000B587B00121042001F0EAFD35
:105810000121080301F0E6FDA020ADF804000320FB
:105820008DF8060018208DF8070001A92048FFF721
:10583000CBF91020ADF804008DF8070001A91D4830
:10584000FFF7C2F910211B48FFF794FA4020ADF88A
:10585000040003208DF8060004208DF8070001A93C
:105860001348FFF7B1F90020ADF808004FF482703B
:10587000ADF80A000020ADF80C000220ADF80E00D3
:105880000120ADF810004002ADF812003020ADF854
:1058900014000020ADF81600ADF8180002A9064863
:1058A00001F080FF0121044801F062FF07B000BD54
:1058B00000080140001001400030014010B56FF0B9
:1058C000040002F0B7FB42F228304FF0E0214861BB
:1058D0000846006940F0020008610846006940F08F
:1058E0000100086110BD000010B586B004463948BB
:1058F00002F08AFD0121880301F074FD01210420DA
:1059000001F070FD03208DF8020018208DF80300CF
:105910004FF40070ADF8000069462F48FFF754F9C6
:1059200004208DF803000002ADF8000069462A4803
:10593000FFF74AF902A802F05CFE029402A925488A
:1059400002F0E2FD25208DF8040004208DF805000A
:1059500000208DF8060001208DF8070001A800F056
:105960008DFC40F2FF311B4802F038FD0022282157
:10597000184802F0A4FD002240F22771154802F0F9
:105980009EFD002240F22661124802F098FD01229D
:1059900040F225510F4802F092FD002240F22441CE
:1059A0000C4802F08CFD002240F64601094802F046
:1059B00086FD002240F66A11064802F080FD0022B2
:1059C0006021044802F07BFD0121024802F00FFD36
:1059D00006B010BD003801400008014010B5154860
:1059E000006828BB1448007810BB142002F0B0FFF8
:1059F00010480068E0B900201049087010201049D4
:105A000008606020091D086000200E490860012020
:105A1000094908700C49C1F8A80100200B49087019
:105A20000B490870487088700A48007800F0B6FB8F
:105A300010BD00001881214281000020800000205C
:105A400010140140BC0121420000224288000020C5
:105A500094000020A900002010B51348007810BB66
:105A600012480068F8B912480078E0B9142002F032
:105A70006FFF0E480068B0B901200E490860002091
:105A80000D49C1F8A80100BF084800680028FBD0F4
:105A90000120074908700020034908700749086081
:105AA00007A002F04BFC10BD8100002014812142B0
:105AB00080000020BC01214200002242A8012242B5
:105AC00053544152543C313E0A3E3E0010B55048BA
:105AD000007805286FD2DFE800F003173257730013
